:100000000C9464000C948C000C948C000C948C0068
:100010000C948C000C948C000C948C000C948C0030
:100020000C948C000C948C000C948C000C94350D6A
:100030000C948C000C948C000C948C000C948C0010
:100040000C9460080C948C000C94890A0C94C50ADA
:100050000C948C000C948C000C948C000C948C00F0
:100060000C9473170C948C00000000070002010030
:100070000003040600000000000000000102040864
:100080001020408001020408102001020408102002
:10009000040404040404040402020202020203032E
:1000A00003030303000000002300260029000000D2
:1000B0000000250028002B0000000000240027007D
:1000C0002A002A08800B811011241FBECFEFD8E030
:1000D000DEBFCDBF13E0A0E0B1E0E2E2F7E302C093
:1000E00005900D92AE35B107D9F718E0AEE5B3E053
:1000F00001C01D92A831B107E1F710E0C8ECD0E0D3
:1001000004C02297FE010E948B1BC23CD107C9F795
:100110000E94280D0C94A3180C940000DC01ED91B2
:10012000FC910190F081E02D0994CF93DF93FC01C5
:10013000DB0188E493E09183808312968C9112977F
:10014000828313964D915D916D917C9116974383B7
:1001500054836583768317964D915D916D917C9163
:100160001A9747835087618772871B964D915D91DF
:100170006D917C911E9743875487658776871F967C
:100180004D915D916D917C9152974787508B618B1A
:10019000728B53964D915D916D917C915697438BE7
:1001A000548B658B768B57964D915D916D917C91BB
:1001B0005A97478B508F618F728F5B964D915D91EF
:1001C0006D917C915E97438F548F658F768F5F968C
:1001D0004D915D916D917C919297478F50A361A352
:1001E00072A393964D915D916D917C91969743A3E7
:1001F00054A365A376A397964D915D916D917C91E3
:100200009A9747A350A761A772A79B968D919C913F
:100210009C9794A783A79D968C919D9785A79E9662
:100220008C919E9786A79F968D919C91D09790AB2D
:1002300087A7D1968D919C91D29792AB81ABD396A3
:100240004D915D916D917C91D69743AB54AB65AB6D
:1002500076ABD7964D915D916D917C91DA9747ABD6
:1002600050AF61AF72AFDB964D915D916D917C9116
:10027000DE9743AF54AF65AF76AFED01EF9648819F
:1002800059816A817B81EF01EF96488359836A83A4
:100290007B83AD5BBF4F8C91ED5BFF4F8083DF9124
:1002A000CF9108951F93CF93DF93EC011B821A82A5
:1002B00061E08C810E94550961E08C810E948D096A
:1002C0002881398114E4129FC001139F900D1124DD
:1002D00040E050E06AE774E489559C4F0E946B153A
:1002E00028813981129FC001139F900D112440E095
:1002F00050E06AE774E489559C4FDF91CF911F91DC
:100300000C94D0150F931F93CF93DF93EC018B01C7
:1003100060E08C810E948D0981E090E09B838A835C
:10032000A801662757FD6095762F28813981E4E47E
:10033000E29FC001E39F900D112489559C4FDF91EE
:10034000CF911F910F910C94DA14FF920F931F938A
:10035000CF93DF93EC018A01882777FD8095982F52
:100360000E94AA19AB01BC012881398184E4F82ECE
:10037000F29EC001F39E900D112489559C4F0E945E
:100380006B15B801882777FD8095982F0E94AA19D0
:10039000AB01BC0128813981F29EC001F39E900D12
:1003A000112489559C4FDF91CF911F910F91FF90A0
:1003B0000C94D0151F93CF93DF93EC0161E08C81F7
:1003C0000E948D091B821A822881398114E4129FB0
:1003D000C001139F900D112489559C4F0E94341326
:1003E000AB01BC0128813981129FC001139F900D80
:1003F000112489559C4FDF91CF911F910C94DA14F1
:10040000CF93DF93EC018A819B8118161906ACF417
:100410002881398144E4429FC001439F900D1124FB
:1004200089559C4F0E941A13672B682B692B29F45E
:10043000CE01DF91CF910C94DA01DF91CF91089535
:10044000609134017091350184EA93E00C94C90EF7
:10045000609132017091330184EA93E00C94C90EEB
:1004600082E090E090935F0380935E0360910201CD
:100470007091030177FF02C06F5F7F4F759567959D
:1004800086E291E00E948201609100017091010179
:1004900077FF02C06F5F7F4F759567958CE191E0A4
:1004A0000E94820160E070E086E191E00E9482019A
:1004B0000C942002EF92FF920F931F93CF93DF9340
:1004C00010927A0310927903E1E8F3E001C01192EF
:1004D00083E0E13AF807D9F7C8E0D1E001E613E09C
:1004E0001DC068E371E088E495E00E94080C7E017D
:1004F000699179914AE050E088E495E00E94200DEE
:1005000061E471E088E495E00E94270C62E0F70165
:1005100080810E945509F80111928F01980121569E
:100520003340809110019091110128173907CCF2C6
:1005300060E0809114010E94550986E291E00E94DA
:1005400052018CE191E00E94520186E191E00E940B
:100550005201609136017091370184EA93E00E9464
:10056000900E81E080936003DF91CF911F910F91F6
:10057000FF90EF90089586E291E00E9400028CE1E6
:1005800091E00E94000286E191E00C94000260E597
:1005900071E088E495E00E94270C80911001909111
:1005A0001101E5E7F3E001C011929F0125573340A7
:1005B00028173907CCF381E090E090935F03809394
:1005C0005E030C9428020F931F93CF93DF938C014B
:1005D000EB016EE571E088E495E00E94270CB8011C
:1005E00086E291E00E948201BE018CE191E0DF9100
:1005F000CF911F910F910C9482010F931F93CF9372
:10060000DF938C01EB0160E871E088E495E00E94E3
:10061000270CB80186E191E00E948201BE0184EAC4
:1006200093E0DF91CF911F910F910C94C90E0F931E
:100630001F93CF93DF93EC018B01AB01BC0186E2EA
:1006400091E00E94A501A801BE018CE191E0DF913B
:10065000CF911F910F910C94A501EF92FF920F93F0
:100660001F93CF93DF937C018B01EA016F2D70E024
:1006700085E196E00E948E00B701772785E196E03C
:100680000E948E00612F70E085E196E00E948E004E
:10069000B801772785E196E00E948E006D2F70E00B
:1006A00085E196E00E948E00BE01772785E196E005
:1006B000DF91CF911F910F91FF90EF900C948E00DE
:1006C000CF92DF92EF92FF927091810360E0809170
:1006D0008203680F711D70937C0360937B0390917C
:1006E000830380E020918403820F911D9093800307
:1006F00080937F039091850380E020918603820F91
:10070000911D90937E0380937D034AE050E088E43E
:1007100095E00E94A40C60917F03709180034AE0F1
:1007200050E088E495E00E94A40C60917D037091F4
:100730007E034AE050E088E495E00E94A40C80919A
:10074000600381110FC080917B0390917C03069719
:1007500031F4FF90EF90DF90CF900C945A026FE944
:1007600071E009C080915E0390915F03181619062D
:1007700054F466EC71E088E495E0FF90EF90DF9030
:10078000CF900C94270C8091A2039091A30318168C
:10079000190634F46EED71E088E495E00E94270CB0
:1007A00080917B0390917C038130910531F4FF901F
:1007B000EF90DF90CF900C94C7028230910571F4D6
:1007C00060917D0370917E0380917F0390918003FF
:1007D000FF90EF90DF90CF900C94E302833091056F
:1007E00039F481E090E09093A3038093A20373C057
:1007F0008430910571F460917D0370917E03809146
:100800007F0390918003FF90EF90DF90CF900C9446
:1008100017038530910571F460917D0370917E031B
:1008200080917F0390918003FF90EF90DF90CF90B5
:100830000C94FD028630910509F44DC08730910576
:1008400021F481E08093A10346C00A9709F043C0D8
:100850004091A2035091A30360915E0370915F03E6
:100860008AE090E00E942D0387EB94E00E9434130D
:100870006B017C018BEF94E00E943413A6018BE0A6
:1008800090E00E942D0384EA93E00E94460F7C01D1
:1008900083E794E00E943413A7018CE090E00E946B
:1008A0002D0340910001509101016091020170916E
:1008B00003018DE090E00E942D0360913001709162
:1008C000310140E050E08EE090E0FF90EF90DF904B
:1008D000CF900C942D03FF90EF90DF90CF90089570
:1008E0000E94C70228C085E196E00E949B0F2091DC
:1008F000790330917A03409112015091130124172A
:10090000350754F4F901EF57FC4F80832F5F3F4FB9
:1009100030937A03209379038091790390917A033D
:100920008417950761F46CEF71E088E495E00E940C
:10093000270C0E94600310927A031092790385E1DC
:1009400096E00E94920F181619066CF208958F9285
:100950009F92AF92BF92DF92EF92FF920F931F93FD
:10096000CF93DF938C01FC01E680F780C085D185B1
:100970005701AA0CBB1C88E091E0A80EB91EF50136
:1009800080810E94C409019709F083C0F701EF59E3
:10099000FC4F808181119FC0F501608171814AE027
:1009A00050E088E495E00E94200D63E072E088E466
:1009B00095E00E94270CF8012081318194E4D92E22
:1009C000D29EC001D39E900D112489559C4F0E9448
:1009D0002E134B015C01F80120813181D29EC001B0
:1009E000D39E900D112489559C4F0E943413861676
:1009F0009706A806B906D4F4F80120813181D29E69
:100A0000C001D39E900D112489559C4F0E94341330
:100A1000AB01BC01F80120813181D29EC001D39E7F
:100A2000900D112489559C4F0E94DA140E94AA0847
:100A3000F701EE0FFF1FEE0FFF1FEB59FC4F608316
:100A4000718382839383F8012081318184E4D82EDD
:100A5000D29EC001D39E900D112440E050E0BA0117
:100A600089559C4F0E943A13F80120813181D29E12
:100A7000C001D39E900D112440E050E0BA01895589
:100A80009C4F0E94DA14F701EF59FC4F81E08083FC
:100A900022C00E94AA08F701EE0FFF1FEE0FFF1FF2
:100AA000EB59FC4F80809180A280B380681979094E
:100AB0008A099B098090040190900501A09006018D
:100AC000B090070186169706A806B90620F4F7012C
:100AD000EF59FC4F10825E01AA0CBB1C88E091E02C
:100AE000A80EB91EF50180810E94C409019709F082
:100AF00074C0FE01EF59FC4F808181118FC0F50158
:100B0000608171814AE050E088E495E00E94200D08
:100B100062E172E088E495E00E94270CF8012081F0
:100B2000318154E4D52ED29EC001D39E900D112464
:100B300089559C4F0E942E134B015C01F8012081C6
:100B40003181D29EC001D39E900D112489559C4FB6
:100B50000E943413681579058A059B05D4F4F801C1
:100B600020813181D29EC001D39E900D11248955E0
:100B70009C4F0E943413AB01BC01F80120813181EC
:100B8000D29EC001D39E900D112489559C4F0E9486
:100B9000DA140E94AA08FE01EE0FFF1FEE0FFF1FDE
:100BA000EB59FC4F6083718382839383CF59DC4F71
:100BB00081E08883F701EF59FC4F8081882371F130
:100BC00061E272E088E495E00E94270C89E090E001
:100BD00090935F0380935E0321C00E94AA08FE01E8
:100BE000EE0FFF1FEE0FFF1FEB59FC4F008111812D
:100BF00022813381601B710B820B930B00910401E6
:100C00001091050120910601309107010617170781
:100C10002807390718F4CF59DC4F1882DF91CF919C
:100C20001F910F91FF90EF90DF90BF90AF909F903A
:100C30008F9008951F93CF93DF93EC012E813F8116
:100C400088859985F901EB58FC4F408141111BC003
:100C5000D901AF59BC4F8C91811121C060E08C81CA
:100C60000E948D0981E090E09B838A8328813981ED
:100C700014E4129FC001139F900D112440E050E036
:100C800068E474EC23C0FC01EB58FC4F2081211177
:100C90002FC0DC01AF59BC4F8C91882319F081E043
:100CA00080832CC060E08C810E948D0981E090E0FF
:100CB0009B838A832881398114E4129FC001139F8A
:100CC000900D112440E050E068E474E489559C4F95
:100CD0000E944A1628813981129FC001139F900DEE
:100CE000112489559C4FDF91CF911F910C94B7121D
:100CF000CE01DF91CF911F910C94DA01DF91CF915A
:100D00001F9108958091280190912901892B81F4E8
:100D100080911E0190911F01892B51F46CE372E0C8
:100D200088E495E00E94270C10925F0310925E0306
:100D30000895FF920F931F93CF93DF9380915E03EB
:100D400090915F038930910541F508E011E0C0E022
:100D5000D0E0FF24F3940AC0F80180810E5F1F4F9A
:100D60000E94C409019709F4F12C21968091100189
:100D700090911101C817D9077CF3FF2009F4A9C08D
:100D800069E572E088E495E00E94270CDF91CF913D
:100D90001F910F91FF900C94C702029741F0809130
:100DA000100190911101E5E7F3E041E026C02091A8
:100DB000260130912701C4E4C29FC001C39F900D5A
:100DC000112489559C4F0E94F11420911C013091EF
:100DD0001D01C29FC001C39F900D112489559C4FD6
:100DE0000E94F114DF91CF911F910F91FF900C940D
:100DF00082062191211101C040E09F012557334017
:100E000028173907B4F3442309F456C0209126016A
:100E100030912701C4E4C29FC001C39F900D1124EB
:100E200089559C4F0E943413709303016093020113
:100E300020911C0130911D01C29FC001C39F900DE4
:100E4000112489559C4F0E943413709301016093C3
:100E500000010E94300265E772E088E495E00E949C
:100E6000270C6CE972E088E495E00E94080C609120
:100E70000201709103014AE050E088E495E00E948D
:100E8000200D63EA72E088E495E00E94080C60910E
:100E90000001709101014AE050E088E495E00E9471
:100EA000200D62EA72E088E495E0DF91CF911F9116
:100EB0000F91FF900C94270C86E291E00E941A0695
:100EC0008CE191E0DF91CF911F910F91FF900C94F5
:100ED0001A06DF91CF911F910F91FF90089564E062
:100EE00070E085E196E00E947A1060E774E085E1A9
:100EF00096E00E947C1040E051EE60E070E088E4F3
:100F000095E00E94000B6CED72E088E495E00E9491
:100F1000270C0C945A02CF9388E495E00E94ED09C7
:100F2000181619060CF066C088E495E00E941C0AA9
:100F3000C82F62EF72E088E495E00E94080C4AE056
:100F400050E06C2F88E495E00E94BC0CC93649F44F
:100F50006CED72E088E495E00E94270C0E945A0232
:100F600049C0C33649F464E073E088E495E00E9428
:100F7000270C0E94C7023EC0C43669F460E173E0EA
:100F800088E495E00E94270C81E090E09093A30311
:100F90008093A2032FC0C13319F464E670E008C047
:100FA000C23369F4609102017091030164567109C2
:100FB00086E291E00E94820164E670E017C0C333CC
:100FC00019F464E670E008C0C433A1F46091020132
:100FD000709103016456710986E291E00E948201DA
:100FE0006091000170910101645671098CE191E0FA
:100FF0000E9482010E94BB0286E291E00E94A70447
:101000008CE191E00E94A70480915E0390915F03C0
:10101000181619061CF4CF910C94990620912601FC
:1010200030912701C4E4C29FC001C39F900D1124D9
:1010300089559C4F0E94F11420911C0130911D0193
:10104000C29FC001C39F900D112489559C4FCF9121
:101050000C94F114CF92EF920F93CC24C39435E00B
:10106000E32E04E024E045E061E08BEF94E00E9491
:10107000FF142CE04DE061E087EB94E00E94FF1448
:101080002FE040E161E083E794E00E94FF146BEF02
:1010900074E087EA93E00E94950067EB74E08BEEC2
:1010A00093E00E94950063E774E08FE294E00E9471
:1010B000950084EA93E00F91EF90CF900C94F30D9C
:1010C0001F920F920FB60F9211242F933F938F937D
:1010D0009F93AF93BF9380913F0590914005A0915E
:1010E0004105B091420530914705232F2D5F2D37E3
:1010F00020F40196A11DB11D05C0232F2A57029689
:10110000A11DB11D2093470580933F059093400595
:10111000A0934105B0934205809143059091440509
:10112000A0914505B09146050196A11DB11D809382
:10113000430590934405A0934505B0934605BF91A0
:10114000AF919F918F913F912F910F900FBE0F9074
:101150001F9018950F931F938FB7F89400913F0538
:101160001091400520914105309142058FBFB80193
:10117000C9011F910F9108950F931F939FB7F89482
:101180000091430510914405209145053091460595
:1011900086B5A89B06C08F3F21F00F5F1F4F2F4FD2
:1011A0003F4F9FBF322F212F102F0027080F111DF7
:1011B000211D311D42E0000F111F221F331F4A95D0
:1011C000D1F7B801C9011F910F910895019739F026
:1011D000880F991F880F991F02970197F1F70895BB
:1011E000789484B5826084BD84B5816084BD85B502
:1011F000826085BD85B5816085BDEEE6F0E08081C9
:1012000081608083E1E8F0E01082808182608083E9
:10121000808181608083E0E8F0E08081816080836C
:10122000E1EBF0E0808184608083E0EBF0E080819E
:1012300081608083EAE7F0E0808184608083808140
:1012400082608083808181608083808180688083E8
:101250001092C1000895833069F028F48130A1F024
:10126000823011F514C08630B1F08730C1F084307F
:10127000D9F404C0809180008F7703C080918000F2
:101280008F7D80938000089584B58F7702C084B5E8
:101290008F7D84BD08958091B0008F7703C08091C9
:1012A000B0008F7D8093B0000895CF93DF9390E0DE
:1012B000FC01E458FF4F4491FC01E057FF4F84913B
:1012C000882341F190E0880F991FFC01E854FF4FFB
:1012D00025913491D90182559F4FFC0185919491BC
:1012E000C82FD92F9FB7F8948C91611106C04095F3
:1012F00084238C938881842308C0623041F4242F96
:10130000209582238C938881842B888302C0842B30
:101310008C939FBFDF91CF9108950F931F93CF932D
:10132000DF931F92CDB7DEB7282F30E0F901E859DF
:10133000FF4F8491F901E458FF4F1491F901E057F0
:10134000FF4F04910023D1F0882321F069830E948C
:101350002B096981E02FF0E0EE0FFF1FE255FF4FF0
:1013600085919491DC019FB7F8948C91611103C031
:101370001095812301C0812B8C939FBF0F90DF912B
:10138000CF911F910F910895CF93DF93282F30E0D5
:10139000F901E859FF4F8491F901E458FF4FD491C6
:1013A000F901E057FF4FC491CC2389F081110E94CD
:1013B0002B09EC2FF0E0EE0FFF1FEC55FF4F85914E
:1013C0009491DC018C918D2321E030E011F420E038
:1013D00030E0C901DF91CF910895FC0184859585A6
:1013E000FC01E05CFF4F20813181FC01EE5BFF4F8F
:1013F00080819181281B390B2F733327C9010895F0
:10140000FC0184859585FC01E05CFF4F40815181A2
:10141000FC01EE5BFF4F208131814217530741F001
:101420000190F081E02DE80FF91F208130E002C02B
:101430002FEF3FEFC9010895FC0184859585FC01DC
:10144000E05CFF4F40815181FC01EE5BFF4F20814A
:1014500031814217530781F0A081B181A80FB91FD4
:101460008C91208131812F5F3F4F2F733327318340
:101470002083282F30E002C02FEF3FEFC9010895ED
:10148000FC0186859785FC01E05CFF4FDC01AE5BCB
:10149000BF4F408151812D913C91119742175307C5
:1014A000C1F70895CF93DF93FC0186859785DC0112
:1014B000A05CBF4F2D913C9111972F5F3F4F2F7331
:1014C0003327EC01CE5BDF4F488159812417350764
:1014D000D9F30D90BC91A02DA80FB91F6C93A685D0
:1014E000B785A05CBF4F11963C932E93A689B78910
:1014F0002C9181E090E0058C02C0880F991F0A941E
:10150000E2F7282B2C9381E090E0DF91CF910895B2
:1015100008951F920F920FB60F9211242F933F93AD
:101520004F938F939F93EF93FF934091C6008091C9
:10153000EB059091EC0501968F7399272091ED05AD
:101540003091EE058217930759F0E091EB05F09189
:10155000EC05E555FA4F40839093EC058093EB053D
:10156000FF91EF919F918F914F913F912F910F900C
:101570000FBE0F901F90189588E495E00E94ED092A
:10158000892B11F00C94880A08951F920F920FB6C0
:101590000F9211242F933F938F939F93EF93FF9379
:1015A0002091A7053091A8058091A9059091AA05E1
:1015B0002817390731F48091C1008F7D8093C100D5
:1015C00014C0E091A905F091AA05E959FA4F2081CC
:1015D0008091A9059091AA0501968F739927909300
:1015E000AA058093A9052093C600FF91EF919F91D2
:1015F0008F913F912F910F900FBE0F901F901895D4
:10160000CF92DF92EF92FF92CF93DF93EC016A01CA
:101610007B01411581EE580761057105F9F0EC89F0
:10162000FD8981E090E00E8C02C0880F991F0A941A
:10163000E2F7808360E079E08DE390E0A701960116
:101640000E943F1B21503109410951095695479588
:1016500037952795211580E1380798F0EC89FD89A9
:10166000108260E874E88EE190E0A70196010E9484
:101670003F1B21503109410951095695479537952E
:101680002795E889F9893083EA89FB892083EE89E7
:10169000FF89408181E090E09C010A8C02C0220F0A
:1016A000331F0A94E2F7422B4083EE89FF89408181
:1016B0009C010B8C02C0220F331F0A94E2F7422BCD
:1016C0004083EE89FF8940819C010C8C02C0220F6F
:1016D000331F0A94E2F7422B4083EE89FF89208171
:1016E0000D8C02C0880F991F0A94E2F7809582231F
:1016F0008083DF91CF91FF90EF90DF90CF9008959E
:1017000010924B0510924A0588EE93E0A0E0B0E0FD
:1017100080934C0590934D05A0934E05B0934F05D3
:1017200088E293E090934905809348058BEA95E021
:10173000909355058093540587E695E0909357055F
:101740008093560585EC90E0909359058093580559
:1017500084EC90E090935B0580935A0580EC90E0D8
:1017600090935D0580935C0581EC90E090935F051C
:1017700080935E0586EC90E0909361058093600510
:1017800084E08093620583E08093630587E0809323
:10179000640585E08093650581E080936605089582
:1017A000CF92DF92EF92FF920F931F93CF93DF932D
:1017B0006C01EB017A01E60EF71E00E010E00BC0B1
:1017C0006991D601ED91FC910190F081E02DC60167
:1017D0000995080F191FCE15DF0591F7C801DF9194
:1017E000CF911F910F91FF90EF90DF90CF900895D0
:1017F000DB010D900020E9F7AD0141505109461B76
:10180000570BDC01ED91FC910280F381E02D0994EE
:101810000C94F80BDC01ED91FC910190F081E02D2E
:1018200009940F931F93CF93DF93EC016DE00E9417
:101830000A0C8C016AE0CE010E940A0C9C01200F68
:10184000311FC901DF91CF911F910F9108950F931F
:101850001F93CF93DF93EC010E94F80B8C01CE0114
:101860000E94110C9801280F391FC901DF91CF91F7
:101870001F910F9108954F925F926F927F929F9266
:10188000AF92BF92CF92DF92EF92FF920F931F938E
:10189000CF93DF93CDB7DEB7A1970FB6F894DEBF35
:1018A0000FBECDBF5C016A017B01922E19A281E0BF
:1018B000821710F08AE0982E8E010F5D1F4F492C81
:1018C000512C612C712CC701B601A30192010E9419
:1018D0003F1B8C2D929E80191124015011098A30D2
:1018E00014F4805D01C0895CF801808369017A018C
:1018F000C114D104E104F10431F7B801C5010E941B
:10190000F80BA1960FB6F894DEBF0FBECDBFDF91E6
:10191000CF911F910F91FF90EF90DF90CF90BF90EC
:10192000AF909F907F906F905F904F90089521159A
:10193000310541F4DC01ED91FC910190F081E02D45
:10194000642F09940C943B0C0F931F93CF93DF9358
:10195000EC019A01AB0160E070E00E94970C8C01F1
:10196000CE010E94110C9801280F391FC901DF9187
:10197000CF911F910F9108950F931F93CF93DF93F2
:10198000EC019A01462F50E060E070E00E94970C55
:101990008C01CE010E94110C9801280F391FC9013A
:1019A000DF91CF911F910F910895CF92DF92EF9227
:1019B000FF920F931F93CF93DF93EC016A017B019A
:1019C0002115310579F4E881F9810190F081E02D4C
:1019D000642FDF91CF911F910F91FF90EF90DF90D7
:1019E000CF9009942A30310519F477FD0EC02AE012
:1019F000B701A601CE01DF91CF911F910F91FF900A
:101A0000EF90DF90CF900C943B0C6DE20E940A0C9B
:101A10008C0144275527BA014C195D096E097F09CD
:101A20002AE0CE010E943B0C080F191FC801DF916C
:101A3000CF911F910F91FF90EF90DF90CF9008957D
:101A40009A01AB01662757FD6095762F0C94D50C53
:101A50000E94F0080E946F07CCEBDAE00E948B072F
:101A60002097E1F30E94BC0AF9CF1F920F920FB6A4
:101A70000F9211242F933F934F935F936F937F9314
:101A80008F939F93AF93BF93EF93FF938091F00554
:101A900087FF05C010928500109284001AC0209123
:101AA000F005332727FD30958091EF0590E028174A
:101AB00039077CF48091F005992787FD9095FC010A
:101AC000EE0FFF1FE80FF91FEF50FA4F808186FDE0
:101AD00037C08091F0058F5F8093F0052091F0056D
:101AE000332727FD30958091EF0590E028173907BF
:101AF000CCF58091F0058C30F4F134C08091F00584
:101B0000992787FD9095FC01EE0FFF1FE80FF91F45
:101B1000EF50FA4F808161E08F730E948D0952C0AF
:101B200080E49CE905C08091840090918500049632
:101B300090938900809388008FEF8093F00542C0D6
:101B40008091F005992787FD9095FC01EE0FFF1F0E
:101B5000E80FF91FEF50FA4F808160E08F730E9409
:101B60008D09B7CF809184009091850004968034D0
:101B70009C49B0F2D8CF809184009091850020914B
:101B8000F005332727FD3095F901EE0FFF1FE20F17
:101B9000F31FEF50FA4F21813281820F931F9093F0
:101BA0008900809388008091F005992787FD9095A2
:101BB000FC01EE0FFF1FE80FF91FEF50FA4F808175
:101BC00086FD9CCFFF91EF91BF91AF919F918F9137
:101BD0007F916F915F914F913F912F910F900FBE29
:101BE0000F901F9018952091EF052C30A0F4FC0168
:101BF0002083822F8F5F8093EF05822F90E0FC017E
:101C0000EE0FFF1FE80FF91FEF50FA4F88EB9BE034
:101C10009283818308952FEFFC0120830895DF9242
:101C2000EF92FF920F931F93CF93DF93EC01D62E89
:101C30007A01890188818C3008F065C061E08D2DC2
:101C40000E9455098881A82FB0E0FD01EE0FFF1F0B
:101C5000EA0FFB1FEF50FA4F2D2D2F739081907CD0
:101C6000922B908360E272E06E197F0977FF02C0C9
:101C70006D5F7F4F7595679575956795698340E6AC
:101C800059E0401B510B57FF02C04D5F5F4F559508
:101C90004795559547954A836CE00E94331B9CE01D
:101CA000899FB001112420E030E0A901460F571FA1
:101CB000FA01EE0FFF1FE40FF51FEF50FA4F90816E
:101CC00096FD15C02F5F3F4F2C30310571F71DC0B9
:101CD0001092800082E08093810010928500109223
:101CE0008400B19A80916F00826080936F00888138
:101CF00090E0FC01EE0FFF1FE80FF91FEF50FA4FC5
:101D0000808180648083888103C0882309F3EFCFBA
:101D1000DF91CF911F910F91FF90EF90DF90089589
:101D200020E639E040E252E00C940F0EFC01808185
:101D30008C3070F5918128E830E0291B310997FD3E
:101D40003395220F331F220F331F621773077CF066
:101D5000928128E532E0291B310997FD3395220F46
:101D6000331F220F331F621773070CF49B014FB709
:101D7000F89490E0FC01EE0FFF1FE80FF91FEF5001
:101D8000FA4F22503109220F331F328321834FBF74
:101D90000895AF92BF92CF92DF92EF92FF920F938E
:101DA0001F93CF93DF93EC01603282E078070CF051
:101DB00041C077FD04C0653B710524F405C060E0B7
:101DC00070E002C064EB70E0298188E890E0821B3B
:101DD000910927FD9395880F991F880F991F5C0122
:101DE000CC24B7FCC094DC2C882777FD8095982FF5
:101DF0002A8148E552E0421B510927FD5395440FC3
:101E0000551F440F551F8A01222717FD2095322F99
:101E10003F932F931F930F9314EBE12EF12C00E0CF
:101E200010E020E030E0A9010E94D7160F900F903B
:101E30000F900F90CE01DF91CF911F910F91FF90E6
:101E4000EF90DF90CF90BF90AF900C94960EFC0176
:101E500080818F3FB9F090E0FC01EE0FFF1FE80F8B
:101E6000F91FEF50FA4F2181328143E0220F331FD7
:101E70004A95E1F754E0369527955A95E1F72E5F9C
:101E80003F4F02C020E030E0C9010895AF92BF92F9
:101E9000CF92DF92EF92FF920F931F93CF93DF9336
:101EA000EC010E94270F2A8148E552E0421B5109AC
:101EB00027FD5395440F551F440F551F7A010027E6
:101EC000F7FC0095102F498128E830E0241B3109E8
:101ED00047FD3395220F331F220F331F442737FD51
:101EE0004095542F0196BC01882777FD8095982F47
:101EF0001F921F921F92E4EBEF93A12CB12C65016E
:101F00000E94D7160F900F900F900F90CB01DF918A
:101F1000CF911F910F91FF90EF90DF90CF90BF90E6
:101F2000AF9008952091880630E080918906281BA3
:101F30003109C90108958091890690918806891711
:101F400050F4E82FF0E0E657F94F208130E08F5F42
:101F50008093890602C02FEF3FEFC9010895E091F9
:101F6000890680918806E81730F4F0E0E657F94FCB
:101F7000208130E002C02FEF3FEFC901089508959E
:101F8000E0912106F09122063097E1F03091890628
:101F9000209188063217B0F040E009C0DC01A20FA2
:101FA000B31F5C91D901A657B94F5C934F5F242FA3
:101FB00030E02617370794F310928906609388065D
:101FC000CB0109940895E0912306F09124063097FF
:101FD00029F0109227061092260609940895CF92B0
:101FE000DF92EF92FF920F931F93CF93DF937C01C9
:101FF000CB018A0120912506222391F0EB016B0190
:10200000C40ED51E09C06991D701ED91FC910190D4
:10201000F081E02DC7010995CC15DD05A1F703C0BE
:10202000642F0E944017C801DF91CF911F910F913B
:10203000FF90EF90DF90CF900895CF93DF931F92A2
:10204000CDB7DEB76983209125062223D1F02091F8
:102050002606203640F021E030E0FC013383228365
:1020600020E030E015C080912706E82FF0E0E85D21
:10207000F94F998190838F5F80932706809326067E
:1020800005C061E0CE0101960E94401721E030E0DA
:10209000C9010F90DF91CF910895FC011382128244
:1020A00048EE53E060E070E04483558366837783B5
:1020B00088E393E0918380830895109289061092BB
:1020C000880610922706109226060C941E17CF93AE
:1020D000DF93EC01862F0E943C1783EE9FE00E9465
:1020E0005E1780EC9FE00E945917CE01DF91CF91DF
:1020F0000C945D100C946710709322066093210677
:10210000089585E196E00C944D10DC0112962C9117
:1021100012972330D1F030F4ED91FC91213069F029
:1021200080F407C02630F9F0283021F1243049F539
:1021300013C00084F185E02D23C00284F385E02DD7
:102140001FC00484F585E02D1BC0DC01ED91FC91DE
:102150000684F785E02D14C0DC01ED91FC91008828
:10216000F189E02D0DC0DC01ED91FC910288F3892D
:10217000E02D06C0DC01ED91FC910488F589E02D8D
:1021800009940895CF93DF93EC01CB01BA0126E0C7
:1021900030E040E050E00E94611B62307105810533
:1021A000910531F15CF4611571058105910591F09E
:1021B0006130710581059105D1F513C06430710559
:1021C0008105910519F1DCF06530710581059105F6
:1021D00071F523C0E881F9810480F581E02D64E088
:1021E00022C0E881F9810480F581E02D65E01BC003
:1021F000E881F9810480F581E02D61E014C0E88177
:10220000F9810480F581E02D63E00DC0E881F9815A
:102210000480F581E02D62E006C0E881F981048048
:10222000F581E02D66E0CE01DF91CF910994DF9139
:10223000CF9108954770552766277727DC01ED91E8
:10224000FC91443051056105710591F1DF01453084
:1022500051056105710564F4423051056105710550
:10226000E9F00CF5413051056105710561F411C0CB
:10227000463051056105710529F1FCF047305105E3
:102280006105710521F11496ED91FC91159761E0BE
:1022900022C00480F581E02D65E01DC00480F58139
:1022A000E02D64E018C00480F581E02D66E013C0E5
:1022B0000480F581E02D62E00EC00480F581E02D00
:1022C0006AE009C00480F581E02D68E004C0048064
:1022D000F581E02D69E00994AF92BF92DF92EF9211
:1022E000FF920F931F93CF93DF931F92CDB7DEB76B
:1022F0008C01FC018281843021F0883011F022E0D1
:1023000001C024E0A12CB12CE62EF12CDD24D394C5
:10231000C7010A2C02C0959587950A94E2F7F80147
:10232000EA0DFB1D678180FD6D25838129830E9455
:102330008D09FFEFAF1ABF0A2981A21648F30F904B
:10234000DF91CF911F910F91FF90EF90DF90BF90A1
:10235000AF9008950F931F93CF93DF93EC01E88123
:10236000F9810480F581E02D8C010D5B1F4FD801B0
:102370008C91882311F062E001C060E0CE010995E4
:10238000E881F9810480F581E02DD8018C918823C2
:1023900011F063E001C061E0CE0109958BA59CA519
:1023A0000E94E608E881F9810480F581E02DDE01D4
:1023B000AD5BBF4F8C91882311F062E001C060E0FB
:1023C000CE01DF91CF911F910F910994CF93DF93AD
:1023D000EC0120E030E0A9016B897C898D899E8920
:1023E0000E945A1A18161CF4EFA5F8A902C0E9A910
:1023F000FAA9DF91CF910994437055276627772773
:10240000DC01ED91FC910480F581E02D4230510515
:102410006105710571F0433051056105710559F091
:10242000413051056105710511F062E005C063E0BE
:1024300003C061E001C060E00994CF93DF93EC0139
:10244000CB01BA0123E030E040E050E00E94611B84
:10245000613071058105910581F06230710581055A
:10246000910591F0672B682B692BC1F4E881F98104
:102470000480F581E02D64E00DC0E881F9810480DD
:10248000F581E02D61E006C0E881F9810480F581E5
:10249000E02D62E0CE01DF91CF910994DF91CF91E1
:1024A00008954370552766277727DC01ED91FC914D
:1024B0000480F581E02D423051056105710571F010
:1024C000433051056105710559F0413051056105F1
:1024D000710511F065E005C066E003C06AE001C067
:1024E00069E00994CF93DF93EC018A81882319F185
:1024F00061E08B810E94550961E08C810E94550941
:102500008A81843011F0883041F461E08D810E942D
:10251000550961E08E810E9455098EA58F3F59F0C3
:1025200061E00E9455096DA581E068278EA5DF91C5
:10253000CF910C948D09DF91CF910895CF93DF93C4
:10254000EC018A81882381F0E881F9810480F5819A
:10255000E02D60E0CE0109958EA58F3F29F06DA595
:10256000DF91CF910C948D09DF91CF910895CF9297
:10257000DF92EF92FF92CF93DF93EC018BA19CA1AE
:10258000ADA1BEA1892B8A2B8B2B09F44BC00E94D5
:10259000BC086B017C018FA198A5A9A5BAA54BA188
:1025A0005CA16DA17EA1480F591F6A1F7B1F4817B0
:1025B00059076A077B0730F0C416D506E606F7060A
:1025C00058F405C0C416D506E606F70658F1C81635
:1025D000D906EA06FB0630F5FE01ED5BFF4F2081D0
:1025E0008B859C85AD85BE85213021F40196A11D8A
:1025F000B11D03C00197A109B1098B879C87AD87E5
:10260000BE87E881F9814B855C856D857E85068076
:10261000F781E02DCE010995CFA2D8A6E9A6FAA6AA
:1026200081E001C080E0DF91CF91FF90EF90DF90DB
:10263000CF9008950F931F93FC010785108921897E
:10264000328983859485A585B685081B190B2A0BCD
:102650003B0BB801C9011F910F910895FC016785DB
:102660007089818992890895FC01638574858585C7
:1026700096850895FC014387548765877687478749
:10268000508B618B728B13AA14AA15AA16AA13A2D7
:1026900014A215A216A208952F923F924F925F9214
:1026A0006F927F928F929F92AF92BF92CF92DF9262
:1026B000EF92FF920F931F93CF93DF9300D000D040
:1026C00000D0CDB7DEB79E838D83FC01C784D08850
:1026D000E188F28883859485A585B685C81AD90ACC
:1026E000EA0AFB0A63897489858996899B01AC0192
:1026F0000E945E1A4B015C01ED81FE81638D748D39
:10270000858D968D9B01AC010E94A7189B01AC01A1
:10271000C501B4010E940F190E947719AB01BC01D9
:10272000C114D104E104F104A9F44230510561055A
:1027300071050CF07CC0ED81FE8113A214A215A2DC
:1027400016A2138A148A158A168A13AA14AA15AA1D
:1027500016AA17C1ED81FE8183A994A9A5A9B6A9DE
:10276000ED5BFF4F1C141D041E041F04F4F4181627
:1027700019061A061B064CF44C155D056E057F05FF
:1027800044F58081811153C024C00097A105B10593
:1027900009F44DC04C155D056E057F050CF047C072
:1027A0002081213009F043C035C0181619061A06D9
:1027B0001B06ECF488279927DC018C199D09AE09CA
:1027C000BF09481759076A077B071CF480818130CD
:1027D00071F570956095509541955F4F6F4F7F4FA4
:1027E000ED81FE8143AB54AB65AB76AB20C0009767
:1027F000A105B105E1F00027112798010C191D0969
:102800002E093F09401751076207730784F420819E
:1028100021110DC0B095A095909581959F4FAF4F18
:10282000BF4FED81FE8183AB94ABA5ABB6ABED8121
:10283000FE8183A894A8A5A8B6A881149104A10438
:10284000B10499F487A990ADA1ADB2AD83AF94AFB7
:10285000A5AFB6AFED5BFF4F81E01C141D041E0455
:102860001F040CF080E080834BC0ED81FE81C3AC7F
:10287000D4ACE5ACF6ACA7019601C701B6010E9445
:10288000A7182B013C01C501B4010E94AA1920E040
:1028900030E040E850E40E945E1A20E030E040E87A
:1028A0005FE30E94A7189B01AC01C301B2010E9423
:1028B0000F199B01AC01C701B6010E94A6181B01AC
:1028C0002C01ED81FE81FF96608071800281138171
:1028D000262D372D402F512F622D732D842D952DB0
:1028E0000E945A1A181614F431018201862D972D70
:1028F000A02FB12FED81FE8183AF94AFA5AFB6AF0E
:10290000FFEF8F1A9F0AAF0ABF0AED81FE8183AAEB
:1029100094AAA5AAB6AA23AD34AD45AD56ADCA0159
:10292000B90129833A834B835C830E947C19ED8132
:10293000FE8163A374A385A396A329813A814B8169
:102940005C8160E074E284E799E40E940F19462FED
:10295000572F682F792F8A019B01ED81FE81438BD0
:10296000548B658B768BED5BFF4F8081811109C0A5
:10297000B901A8017058ED81FE81438B548B658BA2
:10298000768B26960FB6F894DEBF0FBECDBFDF91D3
:10299000CF911F910F91FF90EF90DF90CF90BF905C
:1029A000AF909F908F907F906F905F904F903F90EF
:1029B0002F9008950F931F93FC010785108921899B
:1029C0003289041715072607370741F04787508BD0
:1029D000618B728B1F910F910C944C131F910F916F
:1029E0000895CF93DF93EC010E94B712882319F06A
:1029F000CE010E944C1381E0DF91CF9108958F9218
:102A00009F92AF92BF92CF92EF920F93FC0188E416
:102A100093E09183808362831386148615861686DD
:102A20001786108A118A128A138A148A158A168ABE
:102A3000812C912C80E8A82E8FE3B82E878A908E67
:102A4000A18EB28E838E948EA58EB68E878E90A226
:102A5000A1A2B2A213A214A215A216A281E090E034
:102A600094A783A78FEF86A717A210A611A612A678
:102A7000438324830583E68213AA14AA15AA16AAFF
:102A800017AA10AE11AE12AE13AE14AE15AE16AE3E
:102A9000DF01DF968D929D92AD92BC921397DF017C
:102AA000AD5BBF4F1C921782108611861286CC2018
:102AB00051F0CF010F91EF90CF90BF90AF909F90CA
:102AC0008F900C9472120F91EF90CF90BF90AF90B7
:102AD0009F908F900895CF92DF92EF92FF920F9385
:102AE0001F93CF93DF93EC016A017B019A01AB0145
:102AF0006F89788D898D9A8D0E940B19882309F42E
:102B000046C0CF8AD88EE98EFA8E8E01015C1F4FA7
:102B1000A701960160E074E284E799E40E940F192E
:102B2000F80160837183828393838BA99CA9ADA9EB
:102B3000BEA9181619061A061B064CF56B897C8966
:102B40008D899E899B01AC010E945E1A6B017C01FC
:102B50006B8D7C8D8D8D9E8D9B01AC010E94A71885
:102B60009B01AC01C701B6010E940F190E947719A1
:102B70006BAB7CAB8DAB9EABCE01DF91CF911F9148
:102B80000F91FF90EF90DF90CF900C944C13DF915A
:102B9000CF911F910F91FF90EF90DF90CF9008950C
:102BA0004F925F926F927F928F929F92AF92BF925D
:102BB000CF92DF92EF92FF92CF93DF93EC016A0105
:102BC0007B0120E030E0A901C701B6010E940B198A
:102BD000882309F450C08B8C9C8CAD8CBE8CA701D3
:102BE0009601C501B4010E940B19882309F443C062
:102BF0006BA97CA98DA99EA90E94AA192B013C0151
:102C0000A7019601C501B4010E940F199B01AC01F7
:102C1000C301B2010E945E1A0E9477196BAB7CABB4
:102C20008DAB9EABA701960160E070E080E090E480
:102C30000E940F190E94C51A20E034E244E759E4CB
:102C40000E945E1A6FAB78AF89AF9AAFCB8EDC8EE5
:102C5000ED8EFE8ECE01DF91CF91FF90EF90DF9051
:102C6000CF90BF90AF909F908F907F906F905F902C
:102C70004F900C944C13DF91CF91FF90EF90DF9029
:102C8000CF90BF90AF909F908F907F906F905F900C
:102C90004F9008956F927F928F929F92AF92BF92C2
:102CA000CF92DF92EF92FF920F931F93CF93DF9318
:102CB000EC013A018B012B893C894D895E89662D97
:102CC000772D802F912F0E940B19882309F460C063
:102CD000CF88D88CE98CFA8C46015701B7FAB094AA
:102CE000B7F8B094A5019401662D772D802F912F10
:102CF0000E940B1987FD0DC0A7019601662D772D47
:102D0000802F912F0E945A1A18162CF43601870131
:102D100002C03401850120E030E0A901662D772D45
:102D2000802F912F0E940B19811105C01BA21CA29C
:102D30001DA21EA225C0262D372D402F512F60E049
:102D400074E284E799E40E940F199F770E947C192E
:102D50006BA37CA38DA39EA37E0183E4E80EF11CEC
:102D6000DD24D39420E030E0A901662D772D802F5B
:102D7000912F0E945A1A18160CF0D12CF701D0820C
:102D8000862D972DA02FB12F8B8B9C8BAD8BBE8B5F
:102D9000DF91CF911F910F91FF90EF90DF90CF9037
:102DA000BF90AF909F908F907F906F9008954F92BB
:102DB0005F926F927F92AF92BF92CF92DF92EF922B
:102DC000FF920F931F93CF93DF93CDB7DEB7290107
:102DD0003A01621B730B840B950B29893A894B8945
:102DE0005C892A193B094C095D09298B3A8B4B8B6D
:102DF0005C8B9B01AC0169897A898B899C890E94D3
:102E0000231BE418F50806091709A80197010E9479
:102E1000611B2A0D3B1D4C1D5D1DB901CA01DF91CF
:102E2000CF911F910F91FF90EF90DF90CF90BF90C7
:102E3000AF907F906F905F904F9008951092F3063F
:102E400081E08093F1061092F00661E082E10E9439
:102E50008D0961E083E10E948D09E9EBF0E080815A
:102E60008E7F808380818D7F80838CE08093B8000B
:102E700085E48093BC000895880F8093BA0008957C
:102E8000613698F42091F306243089F46093EC06BF
:102E9000FC0184E597E0DC0102C021912D932A2FEB
:102EA000281B2617D0F380E0089581E0089582E082
:102EB00008959093B5078093B40708959093B7074A
:102EC0008093B607089585ED8093BC008091BC0087
:102ED00084FDFCCF1092F306089585EC8093BC002E
:102EE0001092F30608951F920F920FB60F921124BD
:102EF0002F933F934F935F936F937F938F939F9302
:102F0000AF93BF93EF93FF938091B900887F803692
:102F100009F49FC058F5883209F45BC090F4803101
:102F200009F452C038F4882309F4F8C0883009F055
:102F3000F9C04AC0883109F44CC0803209F0F2C0AF
:102F40005CC0803409F46BC038F4803309F455C098
:102F5000883309F0E7C054C0803509F454C088357F
:102F600009F462C0883409F0DDC0DAC0883909F498
:102F7000CBC0A8F4883709F46CC038F4883609F45B
:102F800068C0803709F0CEC064C0883809F4BCC07E
:102F9000803909F464C0803809F0C4C060C0803B47
:102FA00009F48AC038F4803A09F46BC0883A09F011
:102FB000B9C082C0803C09F4ABC0883C09F4A8C009
:102FC000883B09F0AFC08DC08091F2068093BB00B2
:102FD00012C09091EF068091EE06981788F58091C7
:102FE000EF06E82FF0E0EC50F94F90819093BB0092
:102FF0008F5F8093EF0685EC88C08093EA0690C0CF
:103000008093EA0656C08091EF069091BB00E82FAE
:10301000F0E0EC50F94F90838F5F8093EF06909132
:10302000EF068091EE066DC08091EF069091BB0097
:10303000E82FF0E0EC50F94F90838F5F8093EF061C
:103040008091F10681116CC081E08093F00684EAE2
:1030500060C083E08093F3061092EB06CCCF8091A2
:10306000EB06803608F050C08091EB069091BB00D3
:10307000E82FF0E0E854F84F90838F5F8093EB06E1
:10308000BACF8091EB06803630F4E091EB06F0E0A9
:10309000E854F84F10820E9463176091EB06E091AC
:1030A000B407F091B50770E088EB97E009951092AE
:1030B000EB060E946D1736C084E08093F3061092F1
:1030C000ED061092EC06E091B607F091B70709956E
:1030D0008091EC06811105C081E08093EC0610928E
:1030E00054078091ED06E82FF0E0EC5AF84F9081FC
:1030F0009093BB008F5F8093ED069091ED068091D9
:10310000EC06981708F477CF85E88093BC000AC0D6
:1031100085EC8093BC001092F30604C01092EA067E
:103120000E946317FF91EF91BF91AF919F918F9193
:103130007F916F915F914F913F912F910F900FBEB3
:103140000F901F901895F8940C948F1B5058BB2724
:10315000AA270ED075C166D130F06BD120F031F4C2
:103160009F3F11F41EF45BC10EF4E095E7FB51C1E3
:10317000E92F77D180F3BA176207730784079507A1
:1031800018F071F49EF58FC10EF4E0950B2EBA2F56
:10319000A02D0B01B90190010C01CA01A00111245D
:1031A000FF27591B99F0593F50F4503E68F11A1609
:1031B000F040A22F232F342F4427585FF3CF46959A
:1031C00037952795A795F0405395C9F77EF41F16BC
:1031D000BA0B620B730B840BBAF09150A1F0FF0F86
:1031E000BB1F661F771F881FC2F70EC0BA0F621F72
:1031F000731F841F48F4879577956795B795F79562
:103200009E3F08F0B3CF9395880F08F09927EE0FF3
:10321000979587950895D9D008F481E008950CD04A
:103220000FC107D140F0FED030F021F45F3F19F01C
:10323000F0C0511139C1F3C014D198F39923C9F3E7
:103240005523B1F3951B550BBB27AA2762177307AC
:10325000840738F09F5F5F4F220F331F441FAA1F60
:10326000A9F333D00E2E3AF0E0E830D09150504020
:10327000E695001CCAF729D0FE2F27D0660F771FCE
:10328000881FBB1F261737074807AB07B0E809F0B0
:10329000BB0B802DBF01FF2793585F4F2AF09E3F45
:1032A000510568F0B6C000C15F3FECF3983EDCF317
:1032B000869577956795B795F7959F5FC9F7880FBE
:1032C000911D9695879597F90895E1E0660F771F10
:1032D000881FBB1F621773078407BA0720F0621BA1
:1032E000730B840BBA0BEE1F88F7E095089504D09A
:1032F0006894B111D9C00895BCD088F09F5790F060
:10330000B92F9927B751A0F0D1F0660F771F881F0A
:10331000991F1AF0BA95C9F712C0B13081F0C3D025
:10332000B1E00895C0C0672F782F8827B85F39F0C3
:10333000B93FCCF3869577956795B395D9F73EF469
:1033400090958095709561957F4F8F4F9F4F089511
:10335000E89409C097FB3EF490958095709561952F
:103360007F4F8F4F9F4F9923A9F0F92F96E9BB27E5
:103370009395F695879577956795B795F111F8CF61
:10338000FAF4BB0F11F460FF1BC06F5F7F4F8F4FCC
:103390009F4F16C0882311F096E911C0772321F0C2
:1033A0009EE8872F762F05C0662371F096E8862F5A
:1033B00070E060E02AF09A95660F771F881FDAF7B1
:1033C000880F9695879597F90895990F0008550FDE
:1033D000AA0BE0E8FEEF16161706E807F907C0F09B
:1033E00012161306E407F50798F0621B730B840BA3
:1033F000950B39F40A2661F0232B242B252B21F47D
:1034000008950A2609F4A140A6958FEF811D811D1C
:10341000089597F99F6780E870E060E008959FEF56
:1034200080EC089500240A9416161706180609065B
:10343000089500240A94121613061406050608952A
:10344000092E0394000C11F4882352F0BB0F40F4B2
:10345000BF2B11F460FF04C06F5F7F4F8F4F9F4FF2
:10346000089557FD9058440F551F59F05F3F71F074
:103470004795880F97FB991F61F09F3F79F08795DB
:103480000895121613061406551FF2CF4695F1DF64
:1034900008C0161617061806991FF1CF86957105F4
:1034A000610508940895E894BB2766277727CB0128
:1034B00097F908958ADF08F48FEF08950BD0C0CFF5
:1034C000B1DF28F0B6DF18F0952309F0A2CFA7CF1F
:1034D0001124EACFC6DFA0F3959FD1F3950F50E0FA
:1034E000551F629FF001729FBB27F00DB11D639FB6
:1034F000AA27F00DB11DAA1F649F6627B00DA11D5C
:10350000661F829F2227B00DA11D621F739FB00D01
:10351000A11D621F839FA00D611D221F749F332771
:10352000A00D611D231F849F600D211D822F762F0A
:103530006A2F11249F5750408AF0E1F088234AF007
:10354000EE0FFF1FBB1F661F771F881F9150504053
:10355000A9F79E3F510570F05CCFA6CF5F3FECF31B
:10356000983EDCF3869577956795B795F795E7953F
:103570009F5FC1F7FE2B880F911D9695879597F950
:10358000089511F40EF44BCF3EC073DFD0F39923AE
:10359000D9F3CEF39F57550B87FF43D00024A0E605
:1035A00040EA900180585695979528F4805C660F04
:1035B000771F881F20F026173707480730F4621B53
:1035C000730B840B202931294A2BA6951794079455
:1035D000202531254A2758F7660F771F881F20F0CE
:1035E00026173707480730F4620B730B840B200D46
:1035F000311D411DA09581F7B901842F9158880F85
:103600009695879508959F3F31F0915020F48795C6
:1036100077956795B795880F911D9695879597F93A
:10362000089591505040660F771F881FD2F7089574
:103630000E947D1BA59F900DB49F900DA49F800DAF
:10364000911D11240895DB018F939F930E94181BF5
:10365000BF91AF91A29F800D911DA39F900DB29F2E
:10366000900D11240895991B79E004C0991F9617B5
:1036700008F0961B881F7A95C9F780950895A1E2F6
:103680001A2EAA1BBB1BFD010DC0AA1FBB1FEE1FDC
:10369000FF1FA217B307E407F50720F0A21BB30B27
:1036A000E40BF50B661F771F881F991F1A9469F7A3
:1036B00060957095809590959B01AC01BD01CF01FF
:1036C0000895052E97FB16F4009407D057FD0DD0F2
:1036D0000E943F1B07FC09D07EF490958095709561
:1036E00061957F4F8F4F9F4F08955095409530952E
:1036F00021953F4F4F4F5F4F0895A29FB001B39F59
:10370000C001A39F01D0B29F700D811D1124911D96
:103710000895EE0FFF1F0590F491E02D0994F894A1
:02372000FFCFD9
:10372200640064009600000008000900070006001B
:10373200040006000A00020001000E000100010060
:103742000B00020003000000010003000000010062
:10375200F401B4001400110053657474696E67209B
:103762000020617320696E7075742070696E2E007E
:10377200526573657420636F6D6D616E64004D6F89
:10378200746F7220636F6D6D616E642C20656E6163
:10379200626C696E6720535820616E642053590031
:1037A200436C6177206D6F76656D656E7420206362
:1037B2006F6D6D616E642C206D616E75616C00536E
:1037C200797374656D206E6F7420696E69746961B6
:1037D2006C697A65642C20706C6561736520736511
:1037E2006E6420362E004368696C6C2E204275731D
:1037F200792063616C6962726174696E6700436CFF
:10380200617720627573792064726F7070696E6778
:103812002E2E2068616E67206F6E2E005061636BE2
:10382200657400202D206D696E206C696D697420AD
:103832003C00202D206D6178206C696D6974203EFA
:103842000054726967676572206D616E75616C20E4
:1038520063616C6962726174696F6E0046696E6958
:10386200736865642043656E746572696E67204390
:10387200616C696272617465005374617274696E1D
:1038820067206D616E75616C2063616C6962726143
:1038920074696F6E0046696E69736865642043617E
:1038A2006C6962726174696E672C206D6F76696EE5
:1038B2006720746F2063656E746572004D6178587D
:1038C2003A20004D6178593A200044726F70706955
:1038D2006E6720434C415721004772616262696EF4
:1038E20067004C696674696E670052656164696E4F
:1038F2006700526573657474696E6700496E697416
:1039020069616C697A696E6720537465707065725B
:10391200730053657269616C2072656365697665CF
:10392200643A200043616C6962726174696E670077
:10393200496E636F6D696E6720436C6177204472D4
:103942006F70210000000000520AD00BED091C0A22
:10395200000A400A000000001D10EF0F920F9B0F9B
:10396200AF0FBF0F000000009E1272126C11851083
:0E397200E611AA11FC111D125112C2101A11F9
:00000001FF
